{
  "contractName": "MyLittleDAO",
  "abi": [
    {
      "inputs": [],
      "stateMutability": "nonpayable",
      "type": "constructor"
    },
    {
      "anonymous": false,
      "inputs": [
        {
          "indexed": false,
          "internalType": "uint256",
          "name": "amount",
          "type": "uint256"
        },
        {
          "indexed": true,
          "internalType": "address",
          "name": "addr",
          "type": "address"
        },
        {
          "indexed": true,
          "internalType": "uint64",
          "name": "sessionID",
          "type": "uint64"
        }
      ],
      "name": "DonationRegistered",
      "type": "event"
    },
    {
      "anonymous": false,
      "inputs": [
        {
          "indexed": true,
          "internalType": "address",
          "name": "previousOwner",
          "type": "address"
        },
        {
          "indexed": true,
          "internalType": "address",
          "name": "newOwner",
          "type": "address"
        }
      ],
      "name": "OwnershipTransferred",
      "type": "event"
    },
    {
      "anonymous": false,
      "inputs": [
        {
          "indexed": false,
          "internalType": "uint16",
          "name": "proposalId",
          "type": "uint16"
        },
        {
          "indexed": true,
          "internalType": "uint64",
          "name": "sessionID",
          "type": "uint64"
        }
      ],
      "name": "ProposalRegistered",
      "type": "event"
    },
    {
      "anonymous": false,
      "inputs": [
        {
          "indexed": false,
          "internalType": "enum MyLittleDAO.Setting",
          "name": "setting",
          "type": "uint8"
        },
        {
          "indexed": false,
          "internalType": "uint16",
          "name": "value",
          "type": "uint16"
        },
        {
          "indexed": true,
          "internalType": "uint64",
          "name": "sessionID",
          "type": "uint64"
        }
      ],
      "name": "SettingsApplied",
      "type": "event"
    },
    {
      "anonymous": false,
      "inputs": [
        {
          "indexed": false,
          "internalType": "uint16",
          "name": "proposalID",
          "type": "uint16"
        },
        {
          "indexed": true,
          "internalType": "address",
          "name": "voter",
          "type": "address"
        },
        {
          "indexed": true,
          "internalType": "uint64",
          "name": "sessionID",
          "type": "uint64"
        }
      ],
      "name": "VoteSubmitted",
      "type": "event"
    },
    {
      "anonymous": false,
      "inputs": [
        {
          "indexed": true,
          "internalType": "address",
          "name": "voterAddress",
          "type": "address"
        },
        {
          "indexed": true,
          "internalType": "uint64",
          "name": "sessionID",
          "type": "uint64"
        }
      ],
      "name": "VoterRegistered",
      "type": "event"
    },
    {
      "anonymous": false,
      "inputs": [
        {
          "indexed": true,
          "internalType": "address",
          "name": "voterAddress",
          "type": "address"
        },
        {
          "indexed": true,
          "internalType": "uint64",
          "name": "sessionID",
          "type": "uint64"
        }
      ],
      "name": "VoterUnregistered",
      "type": "event"
    },
    {
      "anonymous": false,
      "inputs": [
        {
          "indexed": false,
          "internalType": "uint256",
          "name": "amount",
          "type": "uint256"
        },
        {
          "indexed": false,
          "internalType": "address",
          "name": "withdrawer",
          "type": "address"
        },
        {
          "indexed": true,
          "internalType": "uint64",
          "name": "sessionID",
          "type": "uint64"
        }
      ],
      "name": "WithdrawalSubmitted",
      "type": "event"
    },
    {
      "anonymous": false,
      "inputs": [
        {
          "indexed": false,
          "internalType": "address",
          "name": "withdrawerAddress",
          "type": "address"
        },
        {
          "indexed": false,
          "internalType": "uint64",
          "name": "sessionID",
          "type": "uint64"
        }
      ],
      "name": "WithdrawerRegistered",
      "type": "event"
    },
    {
      "anonymous": false,
      "inputs": [
        {
          "indexed": false,
          "internalType": "enum MyLittleDAO.WorkflowStatus",
          "name": "previousStatus",
          "type": "uint8"
        },
        {
          "indexed": true,
          "internalType": "enum MyLittleDAO.WorkflowStatus",
          "name": "newStatus",
          "type": "uint8"
        },
        {
          "indexed": true,
          "internalType": "uint64",
          "name": "sessionID",
          "type": "uint64"
        }
      ],
      "name": "WorkflowStatusChange",
      "type": "event"
    },
    {
      "anonymous": false,
      "inputs": [
        {
          "indexed": false,
          "internalType": "address",
          "name": "voterAddress",
          "type": "address"
        },
        {
          "indexed": false,
          "internalType": "uint256",
          "name": "amount",
          "type": "uint256"
        }
      ],
      "name": "badCallReceived",
      "type": "event"
    },
    {
      "anonymous": false,
      "inputs": [
        {
          "indexed": false,
          "internalType": "uint16",
          "name": "oldMaxProposalperSession",
          "type": "uint16"
        },
        {
          "indexed": false,
          "internalType": "uint16",
          "name": "newMaxProposalperSession",
          "type": "uint16"
        }
      ],
      "name": "maxProposalperSessionModification",
      "type": "event"
    },
    {
      "anonymous": false,
      "inputs": [
        {
          "indexed": false,
          "internalType": "uint64",
          "name": "oldMaxVoteSession",
          "type": "uint64"
        },
        {
          "indexed": false,
          "internalType": "uint64",
          "name": "newMaxVoteSession",
          "type": "uint64"
        }
      ],
      "name": "maxVoteSessionModification",
      "type": "event"
    },
    {
      "anonymous": false,
      "inputs": [
        {
          "indexed": false,
          "internalType": "uint16",
          "name": "oldMaxVoterperSession",
          "type": "uint16"
        },
        {
          "indexed": false,
          "internalType": "uint16",
          "name": "newMaxVoterperSession",
          "type": "uint16"
        }
      ],
      "name": "maxVoterperSessionModification",
      "type": "event"
    },
    {
      "anonymous": false,
      "inputs": [
        {
          "indexed": true,
          "internalType": "uint256",
          "name": "sessionID",
          "type": "uint256"
        },
        {
          "indexed": false,
          "internalType": "address",
          "name": "oldAdmin",
          "type": "address"
        },
        {
          "indexed": false,
          "internalType": "address",
          "name": "newAdmin",
          "type": "address"
        }
      ],
      "name": "sessionAdminTransferred",
      "type": "event"
    },
    {
      "anonymous": false,
      "inputs": [
        {
          "indexed": true,
          "internalType": "address",
          "name": "adminAddress",
          "type": "address"
        },
        {
          "indexed": false,
          "internalType": "uint256",
          "name": "sessionID",
          "type": "uint256"
        }
      ],
      "name": "sessionCreated",
      "type": "event"
    },
    {
      "anonymous": false,
      "inputs": [
        {
          "indexed": false,
          "internalType": "address",
          "name": "voterAddress",
          "type": "address"
        },
        {
          "indexed": false,
          "internalType": "uint256",
          "name": "amount",
          "type": "uint256"
        }
      ],
      "name": "transferReceived",
      "type": "event"
    },
    {
      "stateMutability": "payable",
      "type": "fallback",
      "payable": true
    },
    {
      "inputs": [],
      "name": "maxProposalperSession",
      "outputs": [
        {
          "internalType": "uint16",
          "name": "",
          "type": "uint16"
        }
      ],
      "stateMutability": "view",
      "type": "function",
      "constant": true
    },
    {
      "inputs": [],
      "name": "maxVoteSession",
      "outputs": [
        {
          "internalType": "uint64",
          "name": "",
          "type": "uint64"
        }
      ],
      "stateMutability": "view",
      "type": "function",
      "constant": true
    },
    {
      "inputs": [],
      "name": "maxVoterperSession",
      "outputs": [
        {
          "internalType": "uint16",
          "name": "",
          "type": "uint16"
        }
      ],
      "stateMutability": "view",
      "type": "function",
      "constant": true
    },
    {
      "inputs": [],
      "name": "owner",
      "outputs": [
        {
          "internalType": "address",
          "name": "",
          "type": "address"
        }
      ],
      "stateMutability": "view",
      "type": "function",
      "constant": true
    },
    {
      "inputs": [],
      "name": "renounceOwnership",
      "outputs": [],
      "stateMutability": "nonpayable",
      "type": "function"
    },
    {
      "inputs": [
        {
          "internalType": "address",
          "name": "newOwner",
          "type": "address"
        }
      ],
      "name": "transferOwnership",
      "outputs": [],
      "stateMutability": "nonpayable",
      "type": "function"
    },
    {
      "stateMutability": "payable",
      "type": "receive",
      "payable": true
    },
    {
      "inputs": [
        {
          "internalType": "uint64",
          "name": "_id",
          "type": "uint64"
        }
      ],
      "name": "getSession",
      "outputs": [
        {
          "components": [
            {
              "internalType": "string",
              "name": "title",
              "type": "string"
            },
            {
              "internalType": "address",
              "name": "sessionAdmin",
              "type": "address"
            },
            {
              "internalType": "uint16",
              "name": "sessionVoters",
              "type": "uint16"
            },
            {
              "internalType": "uint16",
              "name": "sessionProposals",
              "type": "uint16"
            },
            {
              "internalType": "enum MyLittleDAO.WorkflowStatus",
              "name": "workflowStatus",
              "type": "uint8"
            },
            {
              "internalType": "enum MyLittleDAO.VoteType",
              "name": "voteType",
              "type": "uint8"
            }
          ],
          "internalType": "struct MyLittleDAO.Session",
          "name": "",
          "type": "tuple"
        }
      ],
      "stateMutability": "view",
      "type": "function",
      "constant": true
    },
    {
      "inputs": [
        {
          "internalType": "uint16",
          "name": "_proposalID",
          "type": "uint16"
        },
        {
          "internalType": "uint64",
          "name": "_sessionID",
          "type": "uint64"
        }
      ],
      "name": "getProposal",
      "outputs": [
        {
          "components": [
            {
              "internalType": "string",
              "name": "description",
              "type": "string"
            },
            {
              "internalType": "uint256",
              "name": "voteCount",
              "type": "uint256"
            }
          ],
          "internalType": "struct MyLittleDAO.Proposal",
          "name": "",
          "type": "tuple"
        }
      ],
      "stateMutability": "view",
      "type": "function",
      "constant": true
    },
    {
      "inputs": [
        {
          "internalType": "uint16",
          "name": "_proposalID",
          "type": "uint16"
        },
        {
          "internalType": "uint64",
          "name": "_sessionID",
          "type": "uint64"
        }
      ],
      "name": "getAdminProposal",
      "outputs": [
        {
          "components": [
            {
              "internalType": "enum MyLittleDAO.Setting",
              "name": "setting",
              "type": "uint8"
            },
            {
              "internalType": "uint16",
              "name": "value",
              "type": "uint16"
            },
            {
              "internalType": "bool",
              "name": "applied",
              "type": "bool"
            }
          ],
          "internalType": "struct MyLittleDAO.Admin",
          "name": "",
          "type": "tuple"
        }
      ],
      "stateMutability": "view",
      "type": "function",
      "constant": true
    },
    {
      "inputs": [
        {
          "internalType": "uint64",
          "name": "_sessionID",
          "type": "uint64"
        }
      ],
      "name": "getWinningProposal",
      "outputs": [
        {
          "internalType": "uint16",
          "name": "winningProposalID",
          "type": "uint16"
        }
      ],
      "stateMutability": "view",
      "type": "function",
      "constant": true
    },
    {
      "inputs": [
        {
          "internalType": "address",
          "name": "_addr",
          "type": "address"
        },
        {
          "internalType": "uint64",
          "name": "_sessionID",
          "type": "uint64"
        }
      ],
      "name": "getVoterDonations",
      "outputs": [
        {
          "internalType": "uint256",
          "name": "voterAmount",
          "type": "uint256"
        }
      ],
      "stateMutability": "view",
      "type": "function",
      "constant": true
    },
    {
      "inputs": [
        {
          "internalType": "uint64",
          "name": "_sessionID",
          "type": "uint64"
        }
      ],
      "name": "getSessionDonations",
      "outputs": [
        {
          "internalType": "uint256",
          "name": "sessionAmount",
          "type": "uint256"
        }
      ],
      "stateMutability": "view",
      "type": "function",
      "constant": true
    },
    {
      "inputs": [
        {
          "internalType": "uint64",
          "name": "_sessionID",
          "type": "uint64"
        }
      ],
      "name": "getSessionWithdrawer",
      "outputs": [
        {
          "internalType": "address",
          "name": "sessionWithdrawer",
          "type": "address"
        }
      ],
      "stateMutability": "view",
      "type": "function",
      "constant": true
    },
    {
      "inputs": [
        {
          "internalType": "uint64",
          "name": "_max",
          "type": "uint64"
        }
      ],
      "name": "setMaxVoteSession",
      "outputs": [],
      "stateMutability": "nonpayable",
      "type": "function"
    },
    {
      "inputs": [
        {
          "internalType": "string",
          "name": "_title",
          "type": "string"
        },
        {
          "internalType": "enum MyLittleDAO.VoteType",
          "name": "_voteType",
          "type": "uint8"
        }
      ],
      "name": "createnewVoteSession",
      "outputs": [],
      "stateMutability": "nonpayable",
      "type": "function"
    },
    {
      "inputs": [
        {
          "internalType": "address",
          "name": "_address",
          "type": "address"
        },
        {
          "internalType": "uint64",
          "name": "_sessionID",
          "type": "uint64"
        }
      ],
      "name": "transferSessionAdmin",
      "outputs": [],
      "stateMutability": "nonpayable",
      "type": "function"
    },
    {
      "inputs": [
        {
          "internalType": "address",
          "name": "_address",
          "type": "address"
        },
        {
          "internalType": "uint64",
          "name": "_sessionID",
          "type": "uint64"
        }
      ],
      "name": "addVoter",
      "outputs": [],
      "stateMutability": "nonpayable",
      "type": "function"
    },
    {
      "inputs": [
        {
          "internalType": "address",
          "name": "_address",
          "type": "address"
        },
        {
          "internalType": "uint64",
          "name": "_sessionID",
          "type": "uint64"
        }
      ],
      "name": "removeVoter",
      "outputs": [],
      "stateMutability": "nonpayable",
      "type": "function"
    },
    {
      "inputs": [
        {
          "internalType": "uint16",
          "name": "_max",
          "type": "uint16"
        }
      ],
      "name": "setMaxVoterperSession",
      "outputs": [],
      "stateMutability": "nonpayable",
      "type": "function"
    },
    {
      "inputs": [
        {
          "internalType": "uint64",
          "name": "_sessionID",
          "type": "uint64"
        }
      ],
      "name": "changeWorkflowStatus",
      "outputs": [],
      "stateMutability": "nonpayable",
      "type": "function"
    },
    {
      "inputs": [
        {
          "internalType": "string",
          "name": "_decription",
          "type": "string"
        },
        {
          "internalType": "uint64",
          "name": "_sessionID",
          "type": "uint64"
        },
        {
          "internalType": "enum MyLittleDAO.Setting",
          "name": "_setting",
          "type": "uint8"
        },
        {
          "internalType": "uint16",
          "name": "_value",
          "type": "uint16"
        }
      ],
      "name": "registerProposal",
      "outputs": [],
      "stateMutability": "nonpayable",
      "type": "function"
    },
    {
      "inputs": [
        {
          "internalType": "uint16",
          "name": "_max",
          "type": "uint16"
        }
      ],
      "name": "setMaxProposalperSession",
      "outputs": [],
      "stateMutability": "nonpayable",
      "type": "function"
    },
    {
      "inputs": [
        {
          "internalType": "uint64",
          "name": "_sessionID",
          "type": "uint64"
        }
      ],
      "name": "sendDonation",
      "outputs": [],
      "stateMutability": "payable",
      "type": "function",
      "payable": true
    },
    {
      "inputs": [
        {
          "internalType": "uint16",
          "name": "_proposalID",
          "type": "uint16"
        },
        {
          "internalType": "uint64",
          "name": "_sessionID",
          "type": "uint64"
        }
      ],
      "name": "submitVote",
      "outputs": [],
      "stateMutability": "nonpayable",
      "type": "function"
    },
    {
      "inputs": [
        {
          "internalType": "uint64",
          "name": "_sessionID",
          "type": "uint64"
        }
      ],
      "name": "sessionWithdraw",
      "outputs": [],
      "stateMutability": "nonpayable",
      "type": "function"
    },
    {
      "inputs": [
        {
          "internalType": "uint64",
          "name": "_sessionID",
          "type": "uint64"
        }
      ],
      "name": "applyVote",
      "outputs": [],
      "stateMutability": "nonpayable",
      "type": "function"
    }
  ],
  "bytecode": "0x60806040523480156200001157600080fd5b506200001d3362000053565b600080546001600160a01b03167e64006400000000000027100000000000000000000000000000000000000000179055620000a3565b600080546001600160a01b038381166001600160a01b0319831681178455604051919092169283917f8be0079c531659141344cd1fd0a4f28419497f9722a3daafe3b4186f6b6457e09190a35050565b61390880620000b36000396000f3fe6080604052600436106101855760003560e01c80638da5cb5b116100d1578063bfc735b71161008a578063d9b7b56311610064578063d9b7b56314610528578063f0143f6f14610548578063f2fde38b14610568578063fb24a62314610588576101c5565b8063bfc735b7146104ba578063cc2faeff146104da578063d80888bc146104fa576101c5565b80638da5cb5b146103c85780638e1f2a96146103e65780638f72bd29146104065780639c578e5214610439578063a295f7cf1461045b578063abf838251461049a576101c5565b806336e630dc1161013e5780636155aa37116101185780636155aa3714610339578063715018a61461036657806376ddc8c71461037b5780637d356702146103a8576101c5565b806336e630dc146102e6578063424d744a146102f95780635eb5813614610319576101c5565b80630570dbcd146101fa5780630c14fb351461023757806311803a6e146102595780631462b360146102795780631c868191146102a6578063361acc2b146102c6576101c5565b366101c557604080513381523460208201527f91c892fc096d8ed70186c6b276f9f297ab1802f7d82a14865ec04449b5a74a5491015b60405180910390a1005b604080513381523460208201527fd3873ba07edaff5ed89e666e5fc5e9f1535b4d223898f7a8f588db6869a0c1d591016101bb565b34801561020657600080fd5b5061021a61021536600461320f565b6105aa565b6040516001600160a01b0390911681526020015b60405180910390f35b34801561024357600080fd5b50610257610252366004613248565b610681565b005b34801561026557600080fd5b50610257610274366004613248565b610944565b34801561028557600080fd5b5061029961029436600461328d565b610b75565b60405161022e91906132ef565b3480156102b257600080fd5b506102576102c1366004613248565b610d53565b3480156102d257600080fd5b506102576102e136600461328d565b610f2d565b6102576102f436600461320f565b611434565b34801561030557600080fd5b50610257610314366004613321565b61179a565b34801561032557600080fd5b5061025761033436600461320f565b611809565b34801561034557600080fd5b5061035961035436600461328d565b61187a565b60405161022e9190613362565b34801561037257600080fd5b50610257611a12565b34801561038757600080fd5b5061039b61039636600461320f565b611a26565b60405161022e91906133aa565b3480156103b457600080fd5b506102576103c3366004613321565b611c5e565b3480156103d457600080fd5b506000546001600160a01b031661021a565b3480156103f257600080fd5b5061025761040136600461347e565b611cc4565b34801561041257600080fd5b5061042661042136600461320f565b6120b5565b60405161ffff909116815260200161022e565b34801561044557600080fd5b5060005461042690600160e01b900461ffff1681565b34801561046757600080fd5b5060005461048290600160a01b90046001600160401b031681565b6040516001600160401b03909116815260200161022e565b3480156104a657600080fd5b506102576104b536600461320f565b61217e565b3480156104c657600080fd5b506102576104d53660046134f5565b612579565b3480156104e657600080fd5b506102576104f536600461320f565b612818565b34801561050657600080fd5b5061051a61051536600461320f565b612b79565b60405190815260200161022e565b34801561053457600080fd5b5061025761054336600461320f565b612c3e565b34801561055457600080fd5b5061051a610563366004613248565b612ed8565b34801561057457600080fd5b5061025761058336600461354b565b612fb2565b34801561059457600080fd5b5060005461042690600160f01b900461ffff1681565b60015460009082906001600160401b0390811690821611156105e75760405162461bcd60e51b81526004016105de90613566565b60405180910390fd5b6001600160401b0383166000908152600260209081526040808320338452909152902054839060ff168061063e57506001600160401b0381166000908152600460205260409020600101546001600160a01b031633145b61065a5760405162461bcd60e51b81526004016105de90613595565b5050506001600160401b03166000908152600760205260409020546001600160a01b031690565b60015481906001600160401b0390811690821611156106b25760405162461bcd60e51b81526004016105de90613566565b6001600160401b03821660009081526004602052604090206001015482906001600160a01b031633146106f75760405162461bcd60e51b81526004016105de906135c5565b826000806001600160401b038316600090815260046020526040902060010154600160c01b900460ff1660058111156107325761073261333c565b1461074f5760405162461bcd60e51b81526004016105de906135fc565b6001600160401b03851660009081526002602090815260408083206001600160a01b038a16845290915290205460ff16156107d75760405162461bcd60e51b815260206004820152602260248201527f5468697320766f74657220697320616c72656164792072656769737465726564604482015261202160f01b60648201526084016105de565b600080546001600160401b03871682526004602052604090912060010154600160f01b90910461ffff908116600160a01b90920416106108595760405162461bcd60e51b815260206004820152601d60248201527f4d617820766f746572207065722073657373696f6e207265616368656400000060448201526064016105de565b6001600160401b03851660008181526002602090815260408083206001600160a01b038b1684528252808320805460ff19166001908117909155938352600490915290200180546014906108b89061ffff600160a01b90910416613649565b825461ffff9182166101009390930a83810292021916179091556001600160401b0386166000818152600460205260408082206001018054600160a01b90950261ffff60a01b1990951694909417909355915190916001600160a01b038916917f0987152cfa64ea9a179bf4b2ce77c6e805caa9d58ab13b9b0a932fac9f00c9c49190a3505050505050565b60015481906001600160401b0390811690821611156109755760405162461bcd60e51b81526004016105de90613566565b6001600160401b03821660009081526004602052604090206001015482906001600160a01b031633146109ba5760405162461bcd60e51b81526004016105de906135c5565b826000806001600160401b038316600090815260046020526040902060010154600160c01b900460ff1660058111156109f5576109f561333c565b14610a125760405162461bcd60e51b81526004016105de906135fc565b6001600160401b03851660009081526002602090815260408083206001600160a01b038a16845290915290205460ff16610a8e5760405162461bcd60e51b815260206004820152601e60248201527f5468697320766f746572206973206e6f7420726567697374657265642021000060448201526064016105de565b6001600160401b03851660008181526002602090815260408083206001600160a01b038b1684528252808320805463ffffffff1916905592825260049052206001018054601490610ae990600160a01b900461ffff1661366a565b825461ffff9182166101009390930a83810292021916179091556001600160401b0386166000818152600460205260408082206001018054600160a01b90950261ffff60a01b1990951694909417909355915190916001600160a01b038916917f1349e52f5c837dd55c2c876e7bab4b6276130c52027cfe3f5cb9c4da11a7671b9190a3505050505050565b60408051808201909152606081526000602082015260015482906001600160401b039081169082161115610bbb5760405162461bcd60e51b81526004016105de90613566565b6001600160401b03831660009081526004602052604090206001015461ffff808616918591600160b01b90910416821115610c085760405162461bcd60e51b81526004016105de90613688565b6001600160401b0385166000908152600260209081526040808320338452909152902054859060ff1680610c5f57506001600160401b0381166000908152600460205260409020600101546001600160a01b031633145b610c7b5760405162461bcd60e51b81526004016105de90613595565b6001600160401b038616600090815260036020908152604080832061ffff8b168452909152908190208151808301909252805482908290610cbb906136b8565b80601f0160208091040260200160405190810160405280929190818152602001828054610ce7906136b8565b8015610d345780601f10610d0957610100808354040283529160200191610d34565b820191906000526020600020905b815481529060010190602001808311610d1757829003601f168201915b5050505050815260200160018201548152505094505050505092915050565b60015481906001600160401b039081169082161115610d845760405162461bcd60e51b81526004016105de90613566565b6001600160401b03821660009081526004602052604090206001015482906001600160a01b03163314610dc95760405162461bcd60e51b81526004016105de906135c5565b6001600160a01b038416610e2b5760405162461bcd60e51b815260206004820152602360248201527f4e65772061646d696e2063616e277420626520746865207a65726f206164647260448201526265737360e81b60648201526084016105de565b6001600160401b0383166000908152600460205260409020600101546001600160a01b0390811690851603610eae5760405162461bcd60e51b815260206004820152602360248201527f4e65772061646d696e2063616e2774206265207468652061637475616c20616460448201526236b4b760e91b60648201526084016105de565b6001600160401b03831660008181526004602090815260409182902060010180546001600160a01b031981166001600160a01b038a8116918217909355845192909116808352928201529092917f157354d79c28432532015f38547c70d9d48f75471e8cc8a59f1b98e2ed3bdbdf910160405180910390a25050505050565b60015481906001600160401b039081169082161115610f5e5760405162461bcd60e51b81526004016105de90613566565b6001600160401b0382166000908152600260209081526040808320338452909152902054829060ff16610fa35760405162461bcd60e51b81526004016105de906136f2565b826003806001600160401b038316600090815260046020526040902060010154600160c01b900460ff166005811115610fde57610fde61333c565b14610ffb5760405162461bcd60e51b81526004016105de906135fc565b6001600160401b03851660009081526002602090815260408083203384529091529020548590610100900460ff161561106f5760405162461bcd60e51b8152602060048201526016602482015275165bdd481a185d9948185b1c9958591e481d9bdd195960521b60448201526064016105de565b6001600160401b03861660009081526004602052604090206001015461ffff808916918891600160b01b909104168211156110bc5760405162461bcd60e51b81526004016105de90613688565b600060016001600160401b038a16600090815260046020526040902060010154600160c81b900460ff1660028111156110f7576110f761333c565b0361115d57611106338a612ed8565b9050806000036111585760405162461bcd60e51b815260206004820152601c60248201527f596f75206d757374206861766520646f6e61746520746f20766f74650000000060448201526064016105de565b611161565b5060015b6001600260008b6001600160401b03166001600160401b031681526020019081526020016000206000336001600160a01b03166001600160a01b0316815260200190815260200160002060000160016101000a81548160ff02191690831515021790555089600260008b6001600160401b03166001600160401b031681526020019081526020016000206000336001600160a01b03166001600160a01b0316815260200190815260200160002060000160026101000a81548161ffff021916908361ffff16021790555080600360008b6001600160401b03166001600160401b0316815260200190815260200160002060008c61ffff1661ffff16815260200190815260200160002060010154611278919061371c565b600360008b6001600160401b03166001600160401b0316815260200190815260200160002060008c61ffff1661ffff16815260200190815260200160002060010181905550600660008a6001600160401b03166001600160401b0316815260200190815260200160002060009054906101000a900461ffff1661ffff16600014806113b75750600360008a6001600160401b03166001600160401b031681526020019081526020016000206000600660008c6001600160401b03166001600160401b0316815260200190815260200160002060009054906101000a900461ffff1661ffff1661ffff16815260200190815260200160002060010154600360008b6001600160401b03166001600160401b0316815260200190815260200160002060008c61ffff1661ffff16815260200190815260200160002060010154115b156113e4576001600160401b0389166000908152600660205260409020805461ffff191661ffff8c161790555b60405161ffff8b1681526001600160401b038a169033907fb5c2edde825e95c5e909b4790b6f075f93476133359e102496bea94c131b4db09060200160405180910390a350505050505050505050565b60015481906001600160401b0390811690821611156114655760405162461bcd60e51b81526004016105de90613566565b6001600160401b0382166000908152600260209081526040808320338452909152902054829060ff166114aa5760405162461bcd60e51b81526004016105de906136f2565b6001600160401b03831660009081526002602090815260408083203384529091529020548390610100900460ff161561151e5760405162461bcd60e51b8152602060048201526016602482015275165bdd481a185d9948185b1c9958591e481d9bdd195960521b60448201526064016105de565b60016001600160401b038516600090815260046020526040902060010154600160c81b900460ff1660028111156115575761155761333c565b146115a45760405162461bcd60e51b815260206004820152601f60248201527f53657373696f6e20646f65736e27742061636365707420646f6e6174696f6e0060448201526064016105de565b60006001600160401b038516600090815260046020526040902060010154600160c01b900460ff1660058111156115dd576115dd61333c565b118015611620575060046001600160401b038516600090815260046020526040902060010154600160c01b900460ff16600581111561161e5761161e61333c565b105b6116805760405162461bcd60e51b815260206004820152602b60248201527f53657373696f6e20737461747573206973206e6f7420636f727265637420666f60448201526a7220646f6e6174696f6e7360a81b60648201526084016105de565b346000036116d05760405162461bcd60e51b815260206004820181905260248201527f446f6e6174696f6e73206d7573742062652067726561746572207468616e203060448201526064016105de565b6001600160401b03841660009081526005602090815260408083203384529091529020546116ff90349061371c565b6001600160401b03851660008181526005602090815260408083203384528252808320949094559181526008909152205461173b90349061371c565b6001600160401b0385166000818152600860205260409081902092909255905133907f05ee2423d67bc92c6872b09c698b4d4e4d4f4be3bbcc8c7411f06bd0315af0f99061178c9034815260200190565b60405180910390a350505050565b6117a261302b565b6000805461ffff838116600160f01b8181026001600160f01b0385161790945560408051949093049091168084526020840191909152917f0757b877f803478466771e0f242ae7f14c0e55f2d2985fb3ed6d049c6611f2be91015b60405180910390a15050565b61181161302b565b600080546001600160401b03838116600160a01b81810267ffffffffffffffff60a01b1985161790945560408051949093049091168084526020840191909152917f65cd8d9bb3a05272ab8d86250dee656a7345ca62c3f8a36331a410a258ce2ab391016117fd565b604080516060810182526000808252602082018190529181019190915260015482906001600160401b0390811690821611156118c85760405162461bcd60e51b81526004016105de90613566565b6001600160401b03831660009081526004602052604090206001015461ffff808616918591600160b01b909104168211156119155760405162461bcd60e51b81526004016105de90613688565b6001600160401b0385166000908152600260209081526040808320338452909152902054859060ff168061196c57506001600160401b0381166000908152600460205260409020600101546001600160a01b031633145b6119885760405162461bcd60e51b81526004016105de90613595565b6001600160401b038616600090815260096020908152604080832061ffff8b168452909152908190208151606081019092528054829060ff1660028111156119d2576119d261333c565b60028111156119e3576119e361333c565b81529054610100810461ffff1660208301526301000000900460ff161515604090910152979650505050505050565b611a1a61302b565b611a246000613085565b565b611a5e6040805160c0810182526060808252600060208301819052928201839052810182905290608082019081526020016000905290565b60015482906001600160401b039081169082161115611a8f5760405162461bcd60e51b81526004016105de90613566565b6001600160401b0383166000908152600260209081526040808320338452909152902054839060ff1680611ae657506001600160401b0381166000908152600460205260409020600101546001600160a01b031633145b611b025760405162461bcd60e51b81526004016105de90613595565b6001600160401b03841660009081526004602052604090819020815160c08101909252805482908290611b34906136b8565b80601f0160208091040260200160405190810160405280929190818152602001828054611b60906136b8565b8015611bad5780601f10611b8257610100808354040283529160200191611bad565b820191906000526020600020905b815481529060010190602001808311611b9057829003601f168201915b505050918352505060018201546001600160a01b038116602083015261ffff600160a01b820481166040840152600160b01b820416606083015260809091019060ff600160c01b909104166005811115611c0957611c0961333c565b6005811115611c1a57611c1a61333c565b81526020016001820160199054906101000a900460ff166002811115611c4257611c4261333c565b6002811115611c5357611c5361333c565b905250949350505050565b611c6661302b565b6000805461ffff838116600160e01b81810261ffff60e01b1985161790945560408051949093049091168084526020840191909152917f83ff59678eeb38ce93b0b5e69d01ba71e4446e899945b0dfb8d4060243bbbaea91016117fd565b60015483906001600160401b039081169082161115611cf55760405162461bcd60e51b81526004016105de90613566565b6001600160401b0384166000908152600260209081526040808320338452909152902054849060ff16611d3a5760405162461bcd60e51b81526004016105de906136f2565b846001806001600160401b038316600090815260046020526040902060010154600160c01b900460ff166005811115611d7557611d7561333c565b14611d925760405162461bcd60e51b81526004016105de906135fc565b600080546001600160401b03891682526004602052604090912060010154600160e01b90910461ffff908116600160b01b9092041610611e145760405162461bcd60e51b815260206004820181905260248201527f4d61782070726f706f73616c207065722073657373696f6e207265616368656460448201526064016105de565b604051602001611e2f90602080825260009082015260400190565b604051602081830303815290604052805190602001208989604051602001611e58929190613735565b6040516020818303038152906040528051906020012003611ebb5760405162461bcd60e51b815260206004820152601c60248201527f4465736372697074696f6e2063616e206e6f7420626520656d7074790000000060448201526064016105de565b6001600160401b03871660009081526004602052604090206001018054601690611eef90600160b01b900461ffff16613649565b825461ffff9182166101009390930a83810290830219909116179092556001600160401b03891660009081526004602090815260408083206001018054600160b01b95860261ffff60b01b1990911617908190556003835281842094900490941682529190915220611f62898b836137c8565b5060026001600160401b038816600090815260046020526040902060010154600160c81b900460ff166002811115611f9c57611f9c61333c565b0361204f576001600160401b038716600090815260096020908152604080832060048352818420600190810154600160b01b900461ffff16855292529091208054889260ff1990911690836002811115611ff857611ff861333c565b02179055506001600160401b0387166000908152600960209081526040808320600483528184206001015461ffff600160b01b90910481168552925290912080549187166101000262ffff00199092169190911790555b6001600160401b038716600081815260046020908152604091829020600101549151600160b01b90920461ffff1682527f648f14d07bd6a03056b75536d7765d0b16c783d149d4f29877b33a3e5896898a910160405180910390a2505050505050505050565b60015460009082906001600160401b0390811690821611156120e95760405162461bcd60e51b81526004016105de90613566565b6001600160401b0383166000908152600260209081526040808320338452909152902054839060ff168061214057506001600160401b0381166000908152600460205260409020600101546001600160a01b031633145b61215c5760405162461bcd60e51b81526004016105de90613595565b5050506001600160401b031660009081526006602052604090205461ffff1690565b60015481906001600160401b0390811690821611156121af5760405162461bcd60e51b81526004016105de90613566565b6001600160401b03821660009081526004602052604090206001015482906001600160a01b031633146121f45760405162461bcd60e51b81526004016105de906135c5565b60056001600160401b038416600090815260046020526040902060010154600160c01b900460ff16600581111561222d5761222d61333c565b036122855760405162461bcd60e51b815260206004820152602260248201527f546869732053657373696f6e20697320616c72656164792066696e6973686564604482015261202160f01b60648201526084016105de565b60006001600160401b038416600090815260046020526040902060010154600160c01b900460ff1660058111156122be576122be61333c565b0361232e576001600160401b038316600090815260046020526040902060010154600160a01b900461ffff1661232e5760405162461bcd60e51b81526020600482015260156024820152742cb7ba9036bab9ba103430bb329018903b37ba32b960591b60448201526064016105de565b60016001600160401b038416600090815260046020526040902060010154600160c01b900460ff1660058111156123675761236761333c565b036123df576001600160401b038316600090815260046020526040902060010154600160b01b900461ffff166123df5760405162461bcd60e51b815260206004820152601860248201527f596f75206d757374206861766520312070726f706f73616c000000000000000060448201526064016105de565b60036001600160401b038416600090815260046020526040902060010154600160c01b900460ff1660058111156124185761241861333c565b0361247f576001600160401b03831660009081526006602052604081205461ffff16900361247f5760405162461bcd60e51b8152602060048201526014602482015273596f75206d7573742068617665203120766f746560601b60448201526064016105de565b6001600160401b038316600090815260046020526040902060010154600160c01b900460ff168060058111156124b7576124b761333c565b6124c290600161371c565b60058111156124d3576124d361333c565b6001600160401b0385166000908152600460205260409020600101805460ff60c01b1916600160c01b83600581111561250e5761250e61333c565b02179055506001600160401b038416600081815260046020526040902060010154600160c01b900460ff16600581111561254a5761254a61333c565b7f04b076dd312ee7c812838662bc01e4f522e684e0ef50208262f182959486d57e8360405161178c9190613888565b6000546001546001600160401b03600160a01b90920482169116106125e05760405162461bcd60e51b815260206004820152601860248201527f4d617820766f74652073657373696f6e2072656163686564000000000000000060448201526064016105de565b6040516020016125fb90602080825260009082015260400190565b604051602081830303815290604052805190602001208383604051602001612624929190613735565b60405160208183030381529060405280519060200120036126805760405162461bcd60e51b81526020600482015260166024820152755469746c652063616e206e6f7420626520656d70747960501b60448201526064016105de565b60018054600090612699906001600160401b0316613896565b82546001600160401b039182166101009390930a83810290830219909116179092556001805467ffffffffffffffff191682178155600091825260046020526040808320820180546001600160a01b0319163317905590549092168152206127028385836137c8565b50600180546001600160401b0316600090815260046020526040902001805482919060ff60c81b1916600160c81b8360028111156127425761274261333c565b0217905550600181600281111561275b5761275b61333c565b036127d157600180546001600160401b0390811660009081526007602090815260409182902080546001600160a01b0319163390811790915593548251948552909216918301919091527f1344622cda7563d102c135c38daebb38794e023896600cb6d13b9b772c66acc0910160405180910390a15b6001546040516001600160401b03909116815233907f0f7468781a526e5e570a1d9e0b9313791077a4bcaf1e35a070bfd1adbcbbd8cc9060200160405180910390a2505050565b60015481906001600160401b0390811690821611156128495760405162461bcd60e51b81526004016105de90613566565b816005806001600160401b038316600090815260046020526040902060010154600160c01b900460ff1660058111156128845761288461333c565b146128a15760405162461bcd60e51b81526004016105de906135fc565b6128a961302b565b60026001600160401b038516600090815260046020526040902060010154600160c81b900460ff1660028111156128e2576128e261333c565b1461293b5760405162461bcd60e51b815260206004820152602360248201527f596f7520617265206e6f7420696e20612061646d696e20766f7465207365737360448201526234b7b760e91b60648201526084016105de565b6001600160401b0384166000908152600960209081526040808320600683528184205461ffff1684529091529020546301000000900460ff16156129b35760405162461bcd60e51b815260206004820152600f60248201526e105b1c9958591e48185c1c1b1a5959608a1b60448201526064016105de565b60016001600160401b0385166000908152600960209081526040808320600683528184205461ffff16845290915290205460ff1660028111156129f8576129f861333c565b03612a4a576001600160401b0384166000908152600960209081526040808320600683528184205461ffff90811685529252822054825461ffff60e01b1916610100909104909116600160e01b021790555b60026001600160401b0385166000908152600960209081526040808320600683528184205461ffff16845290915290205460ff166002811115612a8f57612a8f61333c565b03612ae2576001600160401b0384166000908152600960209081526040808320600683528184205461ffff9081168552925282205482546001600160f01b0316610100909104909116600160f01b021790555b6001600160401b038416600081815260096020908152604080832060068352818420805461ffff908116865291909352818420805463ff00000019166301000000179055915482168352918290205491517fd6dcdea987356a9adae050a8a23b156788600b212b973f1758de83ef95c8772792612b6b9260ff82169261010090920416906138b2565b60405180910390a250505050565b60015460009082906001600160401b039081169082161115612bad5760405162461bcd60e51b81526004016105de90613566565b6001600160401b0383166000908152600260209081526040808320338452909152902054839060ff1680612c0457506001600160401b0381166000908152600460205260409020600101546001600160a01b031633145b612c205760405162461bcd60e51b81526004016105de90613595565b5050506001600160401b031660009081526008602052604090205490565b60015481906001600160401b039081169082161115612c6f5760405162461bcd60e51b81526004016105de90613566565b816005806001600160401b038316600090815260046020526040902060010154600160c01b900460ff166005811115612caa57612caa61333c565b14612cc75760405162461bcd60e51b81526004016105de906135fc565b60016001600160401b038516600090815260046020526040902060010154600160c81b900460ff166002811115612d0057612d0061333c565b14612d5b5760405162461bcd60e51b815260206004820152602560248201527f596f7520617265206e6f7420696e206120776974686472617761626c6520736560448201526439b9b4b7b760d91b60648201526084016105de565b6001600160401b0384166000908152600760205260409020546001600160a01b03163314612dcb5760405162461bcd60e51b815260206004820152601f60248201527f596f7520617265206e6f7420616c6c6f77656420746f2077697468647261770060448201526064016105de565b6001600160401b038416600090815260076020526040902054600160a01b900460ff1615612e3b5760405162461bcd60e51b815260206004820152601b60248201527f596f75206861766520616c72656164792077697468647261776564000000000060448201526064016105de565b6001600160401b0384166000908152600760208181526040808420805460ff60a01b198116600160a01b1790915560088352932054919052612e86916001600160a01b0316906130d5565b6001600160401b03841660008181526008602090815260409182902054825190815233918101919091527f6c1c96b4e12f2188441092deaed7470a85241a1d1ab2b289698d1956acf88f7b9101612b6b565b60015460009082906001600160401b039081169082161115612f0c5760405162461bcd60e51b81526004016105de90613566565b6001600160401b0383166000908152600260209081526040808320338452909152902054839060ff1680612f6357506001600160401b0381166000908152600460205260409020600101546001600160a01b031633145b612f7f5760405162461bcd60e51b81526004016105de90613595565b5050506001600160401b031660009081526005602090815260408083206001600160a01b03949094168352929052205490565b612fba61302b565b6001600160a01b03811661301f5760405162461bcd60e51b815260206004820152602660248201527f4f776e61626c653a206e6577206f776e657220697320746865207a65726f206160448201526564647265737360d01b60648201526084016105de565b61302881613085565b50565b6000546001600160a01b03163314611a245760405162461bcd60e51b815260206004820181905260248201527f4f776e61626c653a2063616c6c6572206973206e6f7420746865206f776e657260448201526064016105de565b600080546001600160a01b038381166001600160a01b0319831681178455604051919092169283917f8be0079c531659141344cd1fd0a4f28419497f9722a3daafe3b4186f6b6457e09190a35050565b804710156131255760405162461bcd60e51b815260206004820152601d60248201527f416464726573733a20696e73756666696369656e742062616c616e636500000060448201526064016105de565b6000826001600160a01b03168260405160006040518083038185875af1925050503d8060008114613172576040519150601f19603f3d011682016040523d82523d6000602084013e613177565b606091505b50509050806131ee5760405162461bcd60e51b815260206004820152603a60248201527f416464726573733a20756e61626c6520746f2073656e642076616c75652c207260448201527f6563697069656e74206d6179206861766520726576657274656400000000000060648201526084016105de565b505050565b80356001600160401b038116811461320a57600080fd5b919050565b60006020828403121561322157600080fd5b61322a826131f3565b9392505050565b80356001600160a01b038116811461320a57600080fd5b6000806040838503121561325b57600080fd5b61326483613231565b9150613272602084016131f3565b90509250929050565b803561ffff8116811461320a57600080fd5b600080604083850312156132a057600080fd5b6132648361327b565b6000815180845260005b818110156132cf576020818501810151868301820152016132b3565b506000602082860101526020601f19601f83011685010191505092915050565b60208152600082516040602084015261330b60608401826132a9565b9050602084015160408401528091505092915050565b60006020828403121561333357600080fd5b61322a8261327b565b634e487b7160e01b600052602160045260246000fd5b600381106130285761302861333c565b8151606082019061337281613352565b8083525061ffff602084015116602083015260408301511515604083015292915050565b600681106133a6576133a661333c565b9052565b602081526000825160c060208401526133c660e08401826132a9565b905060018060a01b036020850151166040840152604084015161ffff80821660608601528060608701511660808601525050608084015161340a60a0850182613396565b5060a084015161341981613352565b60c0939093019290925250919050565b60008083601f84011261343b57600080fd5b5081356001600160401b0381111561345257600080fd5b60208301915083602082850101111561346a57600080fd5b9250929050565b6003811061302857600080fd5b60008060008060006080868803121561349657600080fd5b85356001600160401b038111156134ac57600080fd5b6134b888828901613429565b90965094506134cb9050602087016131f3565b925060408601356134db81613471565b91506134e96060870161327b565b90509295509295909350565b60008060006040848603121561350a57600080fd5b83356001600160401b0381111561352057600080fd5b61352c86828701613429565b909450925050602084013561354081613471565b809150509250925092565b60006020828403121561355d57600080fd5b61322a82613231565b60208082526015908201527414d95cdcda5bdb88191bd95cdb89dd08195e1a5cdd605a1b604082015260600190565b6020808252601690820152752cb7ba93b932903737ba103b37ba32b917b0b236b4b760511b604082015260600190565b6020808252601d908201527f596f7520617265206e6f74207468652073657373696f6e2061646d696e000000604082015260600190565b6020808252601d908201527f53657373696f6e20737461747573206973206e6f7420636f7272656374000000604082015260600190565b634e487b7160e01b600052601160045260246000fd5b600061ffff80831681810361366057613660613633565b6001019392505050565b600061ffff82168061367e5761367e613633565b6000190192915050565b602080825260169082015275141c9bdc1bdcd85b08191bd95cdb89dd08195e1a5cdd60521b604082015260600190565b600181811c908216806136cc57607f821691505b6020821081036136ec57634e487b7160e01b600052602260045260246000fd5b50919050565b60208082526010908201526f2cb7ba93b932903737ba103b37ba32b960811b604082015260600190565b8082018082111561372f5761372f613633565b92915050565b60208152816020820152818360408301376000818301604090810191909152601f909201601f19160101919050565b634e487b7160e01b600052604160045260246000fd5b601f8211156131ee57600081815260208120601f850160051c810160208610156137a15750805b601f850160051c820191505b818110156137c0578281556001016137ad565b505050505050565b6001600160401b038311156137df576137df613764565b6137f3836137ed83546136b8565b8361377a565b6000601f841160018114613827576000851561380f5750838201355b600019600387901b1c1916600186901b178355613881565b600083815260209020601f19861690835b828110156138585786850135825560209485019460019092019101613838565b50868210156138755760001960f88860031b161c19848701351681555b505060018560011b0183555b5050505050565b6020810161372f8284613396565b60006001600160401b0380831681810361366057613660613633565b604081016138bf84613352565b92815261ffff919091166020909101529056fea2646970667358221220a2557dda708b68b90fc9afafebddc8d7f2f03b17df737267717bc5cdd8c2a05364736f6c63430008130033",
  "immutableReferences": {},
  "source": "// SPDX-License-Identifier: MIT\n\npragma solidity 0.8.19;\nimport \"../node_modules/@openzeppelin/contracts/access/Ownable.sol\";\nimport \"../node_modules/@openzeppelin/contracts/utils/Address.sol\";\n\n/** @title A voting system contract\n    @author LE GOFF Loic\n    @notice You can use this contract to manage a vote session with or without asset\n    @dev \n*/\ncontract MyLittleDAO is Ownable {\n    using Address for address payable;\n\n    /************** States variables definitions **************/\n    uint64 public maxVoteSession;\n    uint16 public maxProposalperSession;\n    uint16 public maxVoterperSession;\n\n    uint64 private sessions;\n\n    /************** Mappings defnitions **************/\n    mapping(uint64 => mapping(address => Voter)) private voters;\n    mapping(uint64 => mapping(uint16 => Proposal)) private voteProposals;\n    mapping(uint64 => Session) private voteSessions;\n    mapping(uint64 => mapping(address => uint)) private donations;\n    mapping(uint64 => uint16) private winningProposals;\n    mapping(uint64 => Withdraw) private voteWithdrawals;\n    mapping(uint64 => uint) private sessionDonations;\n    mapping(uint64 => mapping(uint16 => Admin)) private sessionSettings;\n\n    /************** Enumartions definitions **************/\n    enum WorkflowStatus {\n        RegisteringVoters,\n        ProposalsRegistrationStarted,\n        ProposalsRegistrationEnded,\n        VotingSessionStarted,\n        VotingSessionEnded,\n        VotesTallied\n    }\n\n    enum VoteType {\n        SimpleVote,\n        PotVote,\n        AdminVote\n    }\n\n    enum Setting {\n        none,\n        maxProposalperSession,\n        maxVoterperSession\n    }\n\n    /************** Strutures definitions **************/\n    struct Voter {\n        bool isRegistered;\n        bool hasVoted;\n        uint16 votedProposalId;\n    }\n\n    struct Session {\n        string title;\n        address sessionAdmin;\n        uint16 sessionVoters;\n        uint16 sessionProposals;\n        WorkflowStatus workflowStatus;\n        VoteType voteType;\n    }\n\n    struct Proposal {\n        string description;\n        uint voteCount;\n    }\n\n    struct Withdraw {\n        address withdrawer;\n        bool hasWithdrawed;\n    }\n\n    struct Admin {\n        Setting setting;\n        uint16 value;\n        bool applied;\n    }\n\n    /** @notice Initialize default contract values\n        @dev maxVoteSession and maxVoter are initialized */\n    constructor() {\n        maxVoteSession = 10000;\n        maxProposalperSession = 100;\n        maxVoterperSession = 100;\n    }\n\n    /// @notice Default function to receive coins\n    /// @dev Emit an even when coins are received\n    receive() external payable {\n        emit transferReceived(msg.sender, msg.value);\n    }\n\n    /** @notice Default function for bad call\n        @dev Emit an even when bad call is received */\n    fallback() external payable {\n        emit badCallReceived(msg.sender, msg.value);\n    }\n\n    /************** Events definitions **************/\n\n    /** @notice This event is emitted when a transfer is received.\n        @param voterAddress The source account.\n        @param amount The amount received. */\n    event transferReceived(address voterAddress, uint amount);\n\n    /** @notice This event is emitted when a bad call is received.\n        @param voterAddress The source account.\n        @param amount The amount received. */\n    event badCallReceived(address voterAddress, uint amount);\n\n    /** @notice This event is emitted when the variable maxVoteSession is modified.\n        @param oldMaxVoteSession The old max vote session limit.\n        @param newMaxVoteSession The new max vote session limit.*/\n    event maxVoteSessionModification(uint64 oldMaxVoteSession, uint64 newMaxVoteSession);\n\n    /** @notice This event is emitted when the variable maxVoterperSession is modified.\n        @param oldMaxVoterperSession The old max voter per session limit.\n        @param newMaxVoterperSession The new max voter per session limit.*/\n    event maxVoterperSessionModification(uint16 oldMaxVoterperSession, uint16 newMaxVoterperSession);\n\n    /** @notice This event is emitted when the variable maxProposalperSession is modified.\n        @param oldMaxProposalperSession The old max proposal per session limit.\n        @param newMaxProposalperSession The new max proposal per session limit.*/\n    event maxProposalperSessionModification(uint16 oldMaxProposalperSession, uint16 newMaxProposalperSession);\n\n    /** @notice This event is emitted when a bad call is received.\n        @param sessionID The new session ID.*/\n    event sessionCreated(address indexed adminAddress, uint sessionID);\n\n    /** @notice This event is emitted when admin session is transferred.\n        @param sessionID The session ID.\n        @param oldAdmin The old session admin.\n        @param newAdmin The new session admin.*/\n    event sessionAdminTransferred(uint indexed sessionID, address oldAdmin, address newAdmin);\n\n    /** @notice This event is emitted when a voter is registered.\n        @param voterAddress The voter adress.\n        @param sessionID The session ID.*/\n    event VoterRegistered(address indexed voterAddress, uint64 indexed sessionID);\n\n    /** @notice This event is emitted when a voter is removed.\n        @param voterAddress The voter adress.\n        @param sessionID The session ID.*/\n    event VoterUnregistered(address indexed voterAddress, uint64 indexed sessionID);\n\n    /** @notice This event is emitted when a withdrawer is registered.\n        @param withdrawerAddress The voter adress.\n        @param sessionID The session ID.*/\n    event WithdrawerRegistered(address withdrawerAddress, uint64 sessionID);\n\n    /** @notice This event is emitted a session workflowstatus is changed.\n        @param previousStatus The session previous workflowstatus.\n        @param newStatus The session new workflowstatus.\n        @param sessionID The session ID.*/\n    event WorkflowStatusChange(WorkflowStatus previousStatus, WorkflowStatus indexed newStatus, uint64 indexed sessionID);\n\n    /** @notice This event is emitted when a proposal is registrered.\n        @param proposalId The registered proposal ID.\n        @param sessionID The session ID.*/\n    event ProposalRegistered(uint16 proposalId, uint64 indexed sessionID);\n\n    /** @notice This event is emitted when a donation is done.\n        @param amount The donation amount.\n        @param addr The donator address.\n        @param sessionID The session ID.*/\n    event DonationRegistered(uint amount, address indexed addr, uint64 indexed sessionID);\n\n    /** @notice This event is emitted when a vote is submitted.\n        @param proposalID The proposalID voted.\n        @param voter The voter address.\n        @param sessionID The session ID.*/\n    event VoteSubmitted(uint16 proposalID, address indexed voter, uint64 indexed sessionID);\n\n    /** @notice This event is emitted when a withdraw is submitted.\n        @param amount The amount withdrawed.\n        @param withdrawer The withdrawer address.\n        @param sessionID The session ID.*/\n    event WithdrawalSubmitted(uint amount, address withdrawer, uint64 indexed sessionID);\n\n    /** @notice This event is emitted a setting is modified by vote.\n        @param setting The setting modified.\n        @param value The new setting value.\n        @param sessionID The session ID.*/\n    event SettingsApplied(Setting setting, uint16 value, uint64 indexed sessionID);\n\n    /************** Modifier definitions **************/\n\n    modifier isSessionAdmin(uint64 _sessionID) {\n        require(\n            msg.sender == voteSessions[_sessionID].sessionAdmin,\n            \"You are not the session admin\"\n        );\n        _;\n    }\n\n    modifier validateSession(uint64 _sessionID) {\n        require(_sessionID <= sessions, \"Session doesn't exist\");\n        _;\n    }\n\n    modifier validateProposal(uint64 _proposalID, uint64 _sessionID) {\n        require(\n            _proposalID <= voteSessions[_sessionID].sessionProposals,\n            \"Proposal doesn't exist\"\n        );\n        _;\n    }\n\n    modifier validateStatus(uint64 _sessionID, uint8 _status) {\n        require(\n            voteSessions[_sessionID].workflowStatus == WorkflowStatus(_status),\n            \"Session status is not correct\"\n        );\n        _;\n    }\n\n    modifier onlyAdminOrVoters(uint64 _sessionID) {\n        require(\n            voters[_sessionID][msg.sender].isRegistered ||\n                msg.sender == voteSessions[_sessionID].sessionAdmin,\n            \"You're not voter/admin\"\n        );\n        _;\n    }\n\n    modifier onlyVoters(uint64 _sessionID) {\n        require(\n            voters[_sessionID][msg.sender].isRegistered,\n            \"You're not voter\"\n        );\n        _;\n    }\n\n    modifier hasntVoted(uint64 _sessionID) {\n        require(\n            !voters[_sessionID][msg.sender].hasVoted,\n            \"You have already voted\"\n        );\n        _;\n    }\n\n    /************** Getters **************/\n\n    /** @notice Get vote session informations.\n        @dev Retrieve session attributes.\n        @param _id The session ID to query.\n        @return Session The sessions informations.*/\n\n    function getSession(\n        uint64 _id\n    )\n        external\n        view\n        validateSession(_id)\n        onlyAdminOrVoters(_id)\n        returns (Session memory)\n    {\n        return voteSessions[_id];\n    }\n\n    /** @notice Get proposal informations.\n        @dev Retrieve session attributes.\n        @param _proposalID The session ID to query.\n        @param _sessionID The session ID to query.\n        @return Session The sessions informations.*/\n\n    function getProposal(\n        uint16 _proposalID,\n        uint64 _sessionID\n    )\n        external\n        view\n        validateSession(_sessionID)\n        validateProposal(_proposalID, _sessionID)\n        onlyAdminOrVoters(_sessionID)\n        returns (Proposal memory)\n    {\n        return voteProposals[_sessionID][_proposalID];\n    }\n\n    /** @notice Get Admin proposal informations.\n        @dev Retrieve session attributes.\n        @param _proposalID The session ID to query.\n        @param _sessionID The session ID to query.\n        @return Session The sessions informations.*/\n\n    function getAdminProposal(\n        uint16 _proposalID,\n        uint64 _sessionID\n    )\n        external\n        view\n        validateSession(_sessionID)\n        validateProposal(_proposalID, _sessionID)\n        onlyAdminOrVoters(_sessionID)\n        returns (Admin memory)\n    {\n        return sessionSettings[_sessionID][_proposalID];\n    }\n\n    /** @notice Get winning proposal of a session.\n        @dev Retrieve the winning proposalID.\n        @param _sessionID The session ID to query.\n        @return winningProposalID The winning proposalID.*/\n\n    function getWinningProposal(\n        uint64 _sessionID\n    )\n        external\n        view\n        validateSession(_sessionID)\n        onlyAdminOrVoters(_sessionID)\n        returns (uint16 winningProposalID)\n    {\n        return winningProposals[_sessionID];\n    }\n\n    /** @notice Get voter donations for a session.\n        @dev only voters or admin can get voter donations.\n        @param _addr The voter address.\n        @param _sessionID The vote session ID.\n        @return voterAmount The voter donation amount.*/\n\n    function getVoterDonations(\n        address _addr,\n        uint64 _sessionID\n    )\n        public\n        view\n        validateSession(_sessionID)\n        onlyAdminOrVoters(_sessionID)\n        returns (uint voterAmount)\n    {\n        return donations[_sessionID][_addr];\n    }\n\n    /** @notice Get donations for a session.\n        @dev only voters or admin can get voter donations.\n        @param _sessionID The vote session ID.\n        @return sessionAmount The session donation amount.*/\n\n    function getSessionDonations(\n        uint64 _sessionID\n    )\n        public\n        view\n        validateSession(_sessionID)\n        onlyAdminOrVoters(_sessionID)\n        returns (uint sessionAmount)\n    {\n        return sessionDonations[_sessionID];\n    }\n\n    /** @notice Get withdrawer for a session.\n        @dev only voters or admin can get voter donations.\n        @param _sessionID The vote session ID.\n        @return sessionWithdrawer The session withdrawer.*/\n\n    function getSessionWithdrawer(\n        uint64 _sessionID\n    )\n        public\n        view\n        validateSession(_sessionID)\n        onlyAdminOrVoters(_sessionID)\n        returns (address sessionWithdrawer)\n    {\n        return voteWithdrawals[_sessionID].withdrawer;\n    }\n\n    /************** Vote sessions **************/\n\n    /** @notice Set the max Vote Session available.\n        @dev Set state variable maxVoteSession.\n        @param _max The new max session number.*/\n\n    function setMaxVoteSession(uint64 _max) public onlyOwner {\n        uint64 oldMaxVoteSession = maxVoteSession;\n        maxVoteSession = _max;\n        emit maxVoteSessionModification(oldMaxVoteSession, _max);\n    }\n\n    /** @notice Create a new vote session.\n        @dev Session creator is set has admin.\n        @dev Global session count is incremented.\n        @param _title The new vote session Title.\n        @param _voteType The new vote type (SimpleVote, PotVote,AdminVote).*/\n\n    function createnewVoteSession(\n        string calldata _title,\n        VoteType _voteType\n    ) external {\n        require((sessions < maxVoteSession), \"Max vote session reached\");\n        require(\n            keccak256(abi.encode(_title)) != keccak256(abi.encode(\"\")),\n            \"Title can not be empty\"\n        );\n\n        sessions = ++sessions;\n\n        voteSessions[sessions].sessionAdmin = msg.sender;\n        voteSessions[sessions].title = _title;\n        voteSessions[sessions].voteType = _voteType;\n        if (_voteType == VoteType.PotVote) {\n            voteWithdrawals[sessions].withdrawer = msg.sender;\n            emit WithdrawerRegistered(msg.sender, sessions);\n        }\n\n        emit sessionCreated(msg.sender,sessions);\n    }\n\n    /** @notice Change vote session admin.\n        @dev Only session admin can transfer adminship.\n        @dev Session adminship can not be transfered to 0x0 or actual admin address.\n        @param _address The new vote session admin address.\n        @param _sessionID The vote session ID to  transfer.*/\n\n    function transferSessionAdmin(\n        address _address,\n        uint64 _sessionID\n    ) external validateSession(_sessionID) isSessionAdmin(_sessionID) {\n        require(_address != address(0), \"New admin can't be the zero address\");\n        require(\n            _address != voteSessions[_sessionID].sessionAdmin,\n            \"New admin can't be the actual admin\"\n        );\n\n        address oldAdmin = voteSessions[_sessionID].sessionAdmin;\n        voteSessions[_sessionID].sessionAdmin = _address;\n\n        emit sessionAdminTransferred(_sessionID, oldAdmin, _address);\n    }\n\n    /************** Voters **************/\n\n    /** @notice Add voter to session whitelist.\n        @dev Only session admin can add a voter.\n        @param _address The voter address.\n        @param _sessionID The vote session ID.*/\n\n    function addVoter(\n        address _address,\n        uint64 _sessionID\n    )\n        external\n        validateSession(_sessionID)\n        isSessionAdmin(_sessionID)\n        validateStatus(_sessionID, 0)\n    {\n        require(\n            !voters[_sessionID][_address].isRegistered,\n            \"This voter is already registered !\"\n        );\n        require(\n            (voteSessions[_sessionID].sessionVoters < maxVoterperSession),\n            \"Max voter per session reached\"\n        );\n        voters[_sessionID][_address].isRegistered = true;\n        voteSessions[_sessionID].sessionVoters = ++voteSessions[_sessionID]\n            .sessionVoters;\n        emit VoterRegistered(_address, _sessionID);\n    }\n\n    /** @notice Remove voter from session whitelist.\n        @dev Only session admin can remove a voter.\n        @param _address The voter address.\n        @param _sessionID The vote session ID.*/\n\n    function removeVoter(\n        address _address,\n        uint64 _sessionID\n    )\n        external\n        validateSession(_sessionID)\n        isSessionAdmin(_sessionID)\n        validateStatus(_sessionID, 0)\n    {\n        require(\n            voters[_sessionID][_address].isRegistered,\n            \"This voter is not registered !\"\n        );\n        delete voters[_sessionID][_address];\n        voteSessions[_sessionID].sessionVoters = --voteSessions[_sessionID]\n            .sessionVoters;\n        emit VoterUnregistered(_address, _sessionID);\n    }\n\n    /** @notice Set the max voters per Session .\n        @dev Set state variable maxVoterperSession.\n        @param _max The new max voter number.*/\n\n    function setMaxVoterperSession(uint16 _max) public onlyOwner {\n        uint16 oldMaxVoter = maxVoterperSession;\n        maxVoterperSession = _max;\n        emit maxVoterperSessionModification(oldMaxVoter, _max);\n    }\n\n    /************** Change Session Status **************/\n\n    /** @notice Change the workflowstatus of a session.\n        @dev Only session admin can change workflowstatus.\n        @param _sessionID The vote session ID.*/\n\n    function changeWorkflowStatus(\n        uint64 _sessionID\n    ) external validateSession(_sessionID) isSessionAdmin(_sessionID) {\n        require(\n            (voteSessions[_sessionID].workflowStatus !=\n                WorkflowStatus.VotesTallied),\n            \"This Session is already finished !\"\n        );\n\n        if (\n            (voteSessions[_sessionID].workflowStatus ==\n                WorkflowStatus.RegisteringVoters)\n        ) {\n            require(\n                (voteSessions[_sessionID].sessionVoters > 0),\n                \"You must have 1 voter\"\n            );\n        }\n\n        if (\n            (voteSessions[_sessionID].workflowStatus ==\n                WorkflowStatus.ProposalsRegistrationStarted)\n        ) {\n            require(\n                (voteSessions[_sessionID].sessionProposals > 0),\n                \"You must have 1 proposal\"\n            );\n        }\n\n        if (\n            (voteSessions[_sessionID].workflowStatus ==\n                WorkflowStatus.VotingSessionStarted)\n        ) {\n            require(\n                !(winningProposals[_sessionID] == 0),\n                \"You must have 1 vote\"\n            );\n        }\n\n        WorkflowStatus previousStatus = voteSessions[_sessionID].workflowStatus;\n        voteSessions[_sessionID].workflowStatus = WorkflowStatus(\n            uint(voteSessions[_sessionID].workflowStatus) + 1\n        );\n\n        emit WorkflowStatusChange(\n            previousStatus,\n            voteSessions[_sessionID].workflowStatus,\n            _sessionID\n        );\n    }\n\n    /************** Proposals **************/\n\n    /** @notice Register a new  proposal to a vote session.\n        @dev Only session voters can add a proposal.\n        @param _decription The proposal description.\n        @param _sessionID The vote session ID.*/\n\n    function registerProposal(\n        string calldata _decription,\n        uint64 _sessionID,\n        Setting _setting,\n        uint16 _value\n    )\n        external\n        validateSession(_sessionID)\n        onlyVoters(_sessionID)\n        validateStatus(_sessionID, 1)\n    {\n        require(\n            (voteSessions[_sessionID].sessionProposals < maxProposalperSession),\n            \"Max proposal per session reached\"\n        );\n        require(\n            keccak256(abi.encode(_decription)) != keccak256(abi.encode(\"\")),\n            \"Description can not be empty\"\n        );\n\n        voteSessions[_sessionID].sessionProposals = ++voteSessions[_sessionID]\n            .sessionProposals;\n\n        voteProposals[_sessionID][voteSessions[_sessionID].sessionProposals]\n            .description = _decription;\n\n        if (voteSessions[_sessionID].voteType == VoteType.AdminVote) {\n            sessionSettings[_sessionID][\n                voteSessions[_sessionID].sessionProposals\n            ].setting = _setting;\n            sessionSettings[_sessionID][\n                voteSessions[_sessionID].sessionProposals\n            ].value = _value;\n        }\n\n        emit ProposalRegistered(\n            voteSessions[_sessionID].sessionProposals,\n            _sessionID\n        );\n    }\n\n    /** @notice Set the max proposal per Session .\n        @dev Set state variable maxVoterperSession.\n        @param _max The new max voter number.*/\n\n    function setMaxProposalperSession(uint16 _max) public onlyOwner {\n        uint16 oldMaxProposal = maxProposalperSession;\n        maxProposalperSession = _max;\n        emit maxProposalperSessionModification(oldMaxProposal, _max);\n    }\n\n    /************** Donations **************/\n\n    /** @notice Send donation for a session.\n        @dev only voters can donate.\n        @param _sessionID The vote session ID.*/\n\n    function sendDonation(\n        uint64 _sessionID\n    )\n        external\n        payable\n        validateSession(_sessionID)\n        onlyVoters(_sessionID)\n        hasntVoted(_sessionID)\n    {\n        require(\n            voteSessions[_sessionID].voteType == VoteType.PotVote,\n            \"Session doesn't accept donation\"\n        );\n        require(\n            voteSessions[_sessionID].workflowStatus >\n                WorkflowStatus.RegisteringVoters &&\n                voteSessions[_sessionID].workflowStatus <\n                WorkflowStatus.VotingSessionEnded,\n            \"Session status is not correct for donations\"\n        );\n        require(!(msg.value == 0), \"Donations must be greater than 0\");\n\n        donations[_sessionID][msg.sender] =\n            donations[_sessionID][msg.sender] +\n            msg.value;\n\n        sessionDonations[_sessionID] = sessionDonations[_sessionID] + msg.value;\n\n        emit DonationRegistered(msg.value, msg.sender, _sessionID);\n    }\n\n    /************** Votes **************/\n\n    /** @notice Send donation for a session.\n        @dev Only voters can submit a vote.\n        @dev Status must be VotingSessionStarted.\n        @param _proposalID The voted proposal ID.\n        @param _sessionID The vote session ID.*/\n\n    function submitVote(\n        uint16 _proposalID,\n        uint64 _sessionID\n    )\n        external\n        validateSession(_sessionID)\n        onlyVoters(_sessionID)\n        validateStatus(_sessionID, 3)\n        hasntVoted(_sessionID)\n        validateProposal(_proposalID, _sessionID)\n    {\n        uint votePower;\n\n        if (voteSessions[_sessionID].voteType == VoteType.PotVote) {\n            votePower = getVoterDonations(msg.sender, _sessionID);\n            require(!(votePower == 0), \"You must have donate to vote\");\n        } else {\n            votePower = 1;\n        }\n\n        voters[_sessionID][msg.sender].hasVoted = true;\n        voters[_sessionID][msg.sender].votedProposalId = _proposalID;\n\n        voteProposals[_sessionID][_proposalID].voteCount =\n            voteProposals[_sessionID][_proposalID].voteCount +\n            votePower;\n\n        if (\n            winningProposals[_sessionID] == 0 ||\n            voteProposals[_sessionID][_proposalID].voteCount >\n            voteProposals[_sessionID][winningProposals[_sessionID]].voteCount\n        ) {\n            winningProposals[_sessionID] = _proposalID;\n        }\n\n        emit VoteSubmitted(_proposalID, msg.sender, _sessionID);\n    }\n\n    /************** Widthdrawals **************/\n\n    /** @notice Withdraw donations.\n        @dev Only withdrawer admin can use it.\n        @param _sessionID The vote session ID.*/\n\n    function sessionWithdraw(\n        uint64 _sessionID\n    ) external validateSession(_sessionID) validateStatus(_sessionID, 5) {\n        require(\n            voteSessions[_sessionID].voteType == VoteType.PotVote,\n            \"You are not in a withdrawable session\"\n        );\n        require(\n            voteWithdrawals[_sessionID].withdrawer == msg.sender,\n            \"You are not allowed to withdraw\"\n        );\n        require(\n            !voteWithdrawals[_sessionID].hasWithdrawed,\n            \"You have already withdrawed\"\n        );\n\n        voteWithdrawals[_sessionID].hasWithdrawed = true;\n\n        payable(voteWithdrawals[_sessionID].withdrawer).sendValue(\n            sessionDonations[_sessionID]\n        );\n\n        emit WithdrawalSubmitted(\n            sessionDonations[_sessionID],\n            msg.sender,\n            _sessionID\n        );\n    }\n\n    /** @notice Apply admin vote.\n        @dev Only contract owner can use it.\n        @param _sessionID The vote session ID.*/\n\n    function applyVote(\n        uint64 _sessionID\n    )\n        external\n        validateSession(_sessionID)\n        validateStatus(_sessionID, 5)\n        onlyOwner\n    {\n        require(\n            voteSessions[_sessionID].voteType == VoteType.AdminVote,\n            \"You are not in a admin vote session\"\n        );\n        require(\n            !sessionSettings[_sessionID][winningProposals[_sessionID]].applied,\n            \"Already applied\"\n        );\n\n        if (\n            sessionSettings[_sessionID][winningProposals[_sessionID]].setting ==\n            Setting.maxProposalperSession\n        ) {\n            maxProposalperSession = sessionSettings[_sessionID][\n                winningProposals[_sessionID]\n            ].value;\n        }\n\n        if (\n            sessionSettings[_sessionID][winningProposals[_sessionID]].setting ==\n            Setting.maxVoterperSession\n        ) {\n            maxVoterperSession = sessionSettings[_sessionID][\n                winningProposals[_sessionID]\n            ].value;\n        }\n\n        sessionSettings[_sessionID][winningProposals[_sessionID]]\n            .applied = true;\n\n        emit SettingsApplied(\n            sessionSettings[_sessionID][winningProposals[_sessionID]].setting,\n            sessionSettings[_sessionID][winningProposals[_sessionID]].value,\n            _sessionID\n        );\n    }\n}\n",
  "sourcePath": "/home/dev/dev/MyLittleDAO/truffle/contracts/MyLittleDAO.sol",
  "compiler": {
    "name": "solc",
    "version": "0.8.19+commit.7dd6d404.Emscripten.clang"
  },
  "schemaVersion": "3.4.11",
  "updatedAt": "2023-04-09T22:14:27.141Z",
  "networkType": "ethereum",
  "devdoc": {
    "author": "LE GOFF Loic",
    "events": {
      "DonationRegistered(uint256,address,uint64)": {
        "params": {
          "addr": "The donator address.",
          "amount": "The donation amount.",
          "sessionID": "The session ID."
        }
      },
      "ProposalRegistered(uint16,uint64)": {
        "params": {
          "proposalId": "The registered proposal ID.",
          "sessionID": "The session ID."
        }
      },
      "SettingsApplied(uint8,uint16,uint64)": {
        "params": {
          "sessionID": "The session ID.",
          "setting": "The setting modified.",
          "value": "The new setting value."
        }
      },
      "VoteSubmitted(uint16,address,uint64)": {
        "params": {
          "proposalID": "The proposalID voted.",
          "sessionID": "The session ID.",
          "voter": "The voter address."
        }
      },
      "VoterRegistered(address,uint64)": {
        "params": {
          "sessionID": "The session ID.",
          "voterAddress": "The voter adress."
        }
      },
      "VoterUnregistered(address,uint64)": {
        "params": {
          "sessionID": "The session ID.",
          "voterAddress": "The voter adress."
        }
      },
      "WithdrawalSubmitted(uint256,address,uint64)": {
        "params": {
          "amount": "The amount withdrawed.",
          "sessionID": "The session ID.",
          "withdrawer": "The withdrawer address."
        }
      },
      "WithdrawerRegistered(address,uint64)": {
        "params": {
          "sessionID": "The session ID.",
          "withdrawerAddress": "The voter adress."
        }
      },
      "WorkflowStatusChange(uint8,uint8,uint64)": {
        "params": {
          "newStatus": "The session new workflowstatus.",
          "previousStatus": "The session previous workflowstatus.",
          "sessionID": "The session ID."
        }
      },
      "badCallReceived(address,uint256)": {
        "params": {
          "amount": "The amount received. ",
          "voterAddress": "The source account."
        }
      },
      "maxProposalperSessionModification(uint16,uint16)": {
        "params": {
          "newMaxProposalperSession": "The new max proposal per session limit.",
          "oldMaxProposalperSession": "The old max proposal per session limit."
        }
      },
      "maxVoteSessionModification(uint64,uint64)": {
        "params": {
          "newMaxVoteSession": "The new max vote session limit.",
          "oldMaxVoteSession": "The old max vote session limit."
        }
      },
      "maxVoterperSessionModification(uint16,uint16)": {
        "params": {
          "newMaxVoterperSession": "The new max voter per session limit.",
          "oldMaxVoterperSession": "The old max voter per session limit."
        }
      },
      "sessionAdminTransferred(uint256,address,address)": {
        "params": {
          "newAdmin": "The new session admin.",
          "oldAdmin": "The old session admin.",
          "sessionID": "The session ID."
        }
      },
      "sessionCreated(address,uint256)": {
        "params": {
          "sessionID": "The new session ID."
        }
      },
      "transferReceived(address,uint256)": {
        "params": {
          "amount": "The amount received. ",
          "voterAddress": "The source account."
        }
      }
    },
    "kind": "dev",
    "methods": {
      "addVoter(address,uint64)": {
        "details": "Only session admin can add a voter.",
        "params": {
          "_address": "The voter address.",
          "_sessionID": "The vote session ID."
        }
      },
      "applyVote(uint64)": {
        "details": "Only contract owner can use it.",
        "params": {
          "_sessionID": "The vote session ID."
        }
      },
      "changeWorkflowStatus(uint64)": {
        "details": "Only session admin can change workflowstatus.",
        "params": {
          "_sessionID": "The vote session ID."
        }
      },
      "constructor": {
        "details": "maxVoteSession and maxVoter are initialized "
      },
      "createnewVoteSession(string,uint8)": {
        "details": "Session creator is set has admin.Global session count is incremented.",
        "params": {
          "_title": "The new vote session Title.",
          "_voteType": "The new vote type (SimpleVote, PotVote,AdminVote)."
        }
      },
      "getAdminProposal(uint16,uint64)": {
        "details": "Retrieve session attributes.",
        "params": {
          "_proposalID": "The session ID to query.",
          "_sessionID": "The session ID to query."
        },
        "returns": {
          "_0": "Session The sessions informations."
        }
      },
      "getProposal(uint16,uint64)": {
        "details": "Retrieve session attributes.",
        "params": {
          "_proposalID": "The session ID to query.",
          "_sessionID": "The session ID to query."
        },
        "returns": {
          "_0": "Session The sessions informations."
        }
      },
      "getSession(uint64)": {
        "details": "Retrieve session attributes.",
        "params": {
          "_id": "The session ID to query."
        },
        "returns": {
          "_0": "Session The sessions informations."
        }
      },
      "getSessionDonations(uint64)": {
        "details": "only voters or admin can get voter donations.",
        "params": {
          "_sessionID": "The vote session ID."
        },
        "returns": {
          "sessionAmount": "The session donation amount."
        }
      },
      "getSessionWithdrawer(uint64)": {
        "details": "only voters or admin can get voter donations.",
        "params": {
          "_sessionID": "The vote session ID."
        },
        "returns": {
          "sessionWithdrawer": "The session withdrawer."
        }
      },
      "getVoterDonations(address,uint64)": {
        "details": "only voters or admin can get voter donations.",
        "params": {
          "_addr": "The voter address.",
          "_sessionID": "The vote session ID."
        },
        "returns": {
          "voterAmount": "The voter donation amount."
        }
      },
      "getWinningProposal(uint64)": {
        "details": "Retrieve the winning proposalID.",
        "params": {
          "_sessionID": "The session ID to query."
        },
        "returns": {
          "winningProposalID": "The winning proposalID."
        }
      },
      "owner()": {
        "details": "Returns the address of the current owner."
      },
      "registerProposal(string,uint64,uint8,uint16)": {
        "details": "Only session voters can add a proposal.",
        "params": {
          "_decription": "The proposal description.",
          "_sessionID": "The vote session ID."
        }
      },
      "removeVoter(address,uint64)": {
        "details": "Only session admin can remove a voter.",
        "params": {
          "_address": "The voter address.",
          "_sessionID": "The vote session ID."
        }
      },
      "renounceOwnership()": {
        "details": "Leaves the contract without owner. It will not be possible to call `onlyOwner` functions anymore. Can only be called by the current owner. NOTE: Renouncing ownership will leave the contract without an owner, thereby removing any functionality that is only available to the owner."
      },
      "sendDonation(uint64)": {
        "details": "only voters can donate.",
        "params": {
          "_sessionID": "The vote session ID."
        }
      },
      "sessionWithdraw(uint64)": {
        "details": "Only withdrawer admin can use it.",
        "params": {
          "_sessionID": "The vote session ID."
        }
      },
      "setMaxProposalperSession(uint16)": {
        "details": "Set state variable maxVoterperSession.",
        "params": {
          "_max": "The new max voter number."
        }
      },
      "setMaxVoteSession(uint64)": {
        "details": "Set state variable maxVoteSession.",
        "params": {
          "_max": "The new max session number."
        }
      },
      "setMaxVoterperSession(uint16)": {
        "details": "Set state variable maxVoterperSession.",
        "params": {
          "_max": "The new max voter number."
        }
      },
      "submitVote(uint16,uint64)": {
        "details": "Only voters can submit a vote.Status must be VotingSessionStarted.",
        "params": {
          "_proposalID": "The voted proposal ID.",
          "_sessionID": "The vote session ID."
        }
      },
      "transferOwnership(address)": {
        "details": "Transfers ownership of the contract to a new account (`newOwner`). Can only be called by the current owner."
      },
      "transferSessionAdmin(address,uint64)": {
        "details": "Only session admin can transfer adminship.Session adminship can not be transfered to 0x0 or actual admin address.",
        "params": {
          "_address": "The new vote session admin address.",
          "_sessionID": "The vote session ID to  transfer."
        }
      }
    },
    "title": "A voting system contract",
    "version": 1
  },
  "userdoc": {
    "events": {
      "DonationRegistered(uint256,address,uint64)": {
        "notice": "This event is emitted when a donation is done."
      },
      "ProposalRegistered(uint16,uint64)": {
        "notice": "This event is emitted when a proposal is registrered."
      },
      "SettingsApplied(uint8,uint16,uint64)": {
        "notice": "This event is emitted a setting is modified by vote."
      },
      "VoteSubmitted(uint16,address,uint64)": {
        "notice": "This event is emitted when a vote is submitted."
      },
      "VoterRegistered(address,uint64)": {
        "notice": "This event is emitted when a voter is registered."
      },
      "VoterUnregistered(address,uint64)": {
        "notice": "This event is emitted when a voter is removed."
      },
      "WithdrawalSubmitted(uint256,address,uint64)": {
        "notice": "This event is emitted when a withdraw is submitted."
      },
      "WithdrawerRegistered(address,uint64)": {
        "notice": "This event is emitted when a withdrawer is registered."
      },
      "WorkflowStatusChange(uint8,uint8,uint64)": {
        "notice": "This event is emitted a session workflowstatus is changed."
      },
      "badCallReceived(address,uint256)": {
        "notice": "This event is emitted when a bad call is received."
      },
      "maxProposalperSessionModification(uint16,uint16)": {
        "notice": "This event is emitted when the variable maxProposalperSession is modified."
      },
      "maxVoteSessionModification(uint64,uint64)": {
        "notice": "This event is emitted when the variable maxVoteSession is modified."
      },
      "maxVoterperSessionModification(uint16,uint16)": {
        "notice": "This event is emitted when the variable maxVoterperSession is modified."
      },
      "sessionAdminTransferred(uint256,address,address)": {
        "notice": "This event is emitted when admin session is transferred."
      },
      "sessionCreated(address,uint256)": {
        "notice": "This event is emitted when a bad call is received."
      },
      "transferReceived(address,uint256)": {
        "notice": "This event is emitted when a transfer is received."
      }
    },
    "kind": "user",
    "methods": {
      "addVoter(address,uint64)": {
        "notice": "Add voter to session whitelist."
      },
      "applyVote(uint64)": {
        "notice": "Apply admin vote."
      },
      "changeWorkflowStatus(uint64)": {
        "notice": "Change the workflowstatus of a session."
      },
      "constructor": {
        "notice": "Initialize default contract values"
      },
      "createnewVoteSession(string,uint8)": {
        "notice": "Create a new vote session."
      },
      "getAdminProposal(uint16,uint64)": {
        "notice": "Get Admin proposal informations."
      },
      "getProposal(uint16,uint64)": {
        "notice": "Get proposal informations."
      },
      "getSession(uint64)": {
        "notice": "Get vote session informations."
      },
      "getSessionDonations(uint64)": {
        "notice": "Get donations for a session."
      },
      "getSessionWithdrawer(uint64)": {
        "notice": "Get withdrawer for a session."
      },
      "getVoterDonations(address,uint64)": {
        "notice": "Get voter donations for a session."
      },
      "getWinningProposal(uint64)": {
        "notice": "Get winning proposal of a session."
      },
      "registerProposal(string,uint64,uint8,uint16)": {
        "notice": "Register a new  proposal to a vote session."
      },
      "removeVoter(address,uint64)": {
        "notice": "Remove voter from session whitelist."
      },
      "sendDonation(uint64)": {
        "notice": "Send donation for a session."
      },
      "sessionWithdraw(uint64)": {
        "notice": "Withdraw donations."
      },
      "setMaxProposalperSession(uint16)": {
        "notice": "Set the max proposal per Session ."
      },
      "setMaxVoteSession(uint64)": {
        "notice": "Set the max Vote Session available."
      },
      "setMaxVoterperSession(uint16)": {
        "notice": "Set the max voters per Session ."
      },
      "submitVote(uint16,uint64)": {
        "notice": "Send donation for a session."
      },
      "transferSessionAdmin(address,uint64)": {
        "notice": "Change vote session admin."
      }
    },
    "notice": "You can use this contract to manage a vote session with or without asset",
    "version": 1
  }
}